:020000040800F2
:100000000000012055330008A1070008CF020008B6
:10001000A3070008A5070008A707000800000000C4
:100020000000000000000000000000009D330008F8
:10003000A90700080000000053020008691A000820
:100040009D3300089D3300089D3300089D33000850
:100050009D3300089D3300089D3300089D33000840
:100060009D3300089D3300089D3300089D33000830
:100070009D3300089D3300089D3300089D33000820
:100080009D3300089D3300089D3300089D33000810
:100090009D3300089D3300089D3300089D33000800
:1000A0009D3300089D3300089D3300089D330008F0
:1000B0009D3300089D3300089D3300089D330008E0
:1000C0009D3300089D3300089D3300089D330008D0
:1000D0009D3300089D3300089D3300089D330008C0
:1000E0009D3300089D3300089D3300089D330008B0
:1000F0009D3300089D3300089D3300089D330008A0
:100100009D3300089D3300089D3300089D3300088F
:100110009D3300089D3300089D3300089D3300087F
:100120009D3300089D3300089D3300089D3300086F
:1001300000000000000000000000000000000000BF
:1001400000000000000000000000000000000000AF
:10015000000000000000000000000000000000009F
:10016000000000000000000000000000000000008F
:10017000000000000000000000000000000000007F
:10018000000000000000000000000000000000006F
:10019000000000000000000000000000000000005F
:1001A000000000000000000000000000000000004F
:1001B000000000000000000000000000000000003F
:1001C000000000000000000000000000000000002F
:1001D000000000000000000000000000000000001F
:0401E0005FF8E0F1F3
:1001E40010B5054C237833B9044B13B10448AFF36D
:1001F40000800123237010BD3C000020000000009B
:100204006034000808B5034B1BB103490348AFF33E
:10021400008008BD00000000400000206034000899
:10022400EFF3108072B6704780F310887047364A37
:100234001368012B04D04FF001031360334A10609C
:10024400334A116033484FF0805101607047EFF337
:10025400108272B62C48016891B14FF00001016020
:100264002A48016829B1EFF3098121E9F00F0068F8
:100274000160274909680968B1E8F00F81F309882A
:1002840082F310884EF0040E7047214908601F491C
:100294004FF0000008601C494FF0010008601E4840
:1002A4004FF47F01D0F8002041EA020101601948AF
:1002B4004FF08051016019480068006800BF80F366
:1002C400088861B662B6704700BFEFF308801EF07D
:1002D400040F01D0EFF3098020E9F00F40F804ED9A
:1002E4001EF0040F02D080F3098801E080F308882F
:1002F40000B502F0ABFF5DF804EB4EF0040E70475E
:10030400EFF3058070470000B42A0020B02A0020D3
:10031400AC2A002004ED00E020ED00E008ED00E050
:10032400034613F8012B002AFBD1181A0138704731
:1003340008B5094C00222021204600F0D7FB4FF4D9
:10034400FA7002F0A9FC01222021204600F0CEFB25
:10035400FA2002F0A1FCECE7000C014000B585B0E6
:1003640000F06AFA00F022F8142303931E23029388
:10037400A8230193084B00930023084A084909481D
:1003840002F0CAFB20B14FF47A7002F085FCFAE760
:10039400044802F0AAFCF6E7D00000203503000868
:1003A40014350008580000207047000030B587B0AD
:1003B40000240294039404940594134B9A6942F024
:1003C40004029A619A6902F004020092009A9A69FE
:1003D40042F008029A619B6903F008030193019BB0
:1003E4000A4D22462021284600F080FB2023029358
:1003F4000123039304940223059302A9284600F0E1
:1004040059FA07B030BD00BF00100240000C014093
:1004140008B50A480A4B03604FF4E13343600023F4
:100424008360C36003610C2242618361C36100F095
:100434003BFC00B908BDFFF7B7FFFBE7D828002055
:100444000038014010B586B000230293039304934F
:1004540005930268174B9A4201D006B010BD03F50C
:1004640058439A6942F480429A619A6902F480423C
:100474000092009A9A6942F004029A619B6903F01F
:1004840004030193019B4FF400730293022303932B
:1004940003230593084C02A9204600F00BFA4FF4FD
:1004A4008063029300230393049302A9204600F07F
:1004B40001FAD2E7003801400008014010B584B0C9
:1004C40005230193192300934FF4007300220E496E
:1004D4000E4802F043FB08B102F007FC0C4C052364
:1004E4000393182302934FF480630193094B009301
:1004F4000023094A0949204602F00EFB204602F077
:10050400F4FB002004B010BD4905000820350008A4
:1005140078010020F0010020250500082835000896
:1005240010B50024092C05D82146044801F020FF09
:100534000134F7E7024801F01BFF10BD3035000815
:100544004435000810B500214C1C044801F010FF8C
:100554004FF4FA7002F0A0FB2146F5E75435000889
:1005640000B583B00A230193142300934FF400735E
:1005740001220C490C4802F0F1FA08B102F0B5FB73
:1005840005230193142300934FF4007302220549B9
:10059400064802F0E3FA08B102F0A7FB002003B01A
:1005A4005DF804FBB505000820350008283500086F
:1005B40038B50546002400E00134094BA3FB0423AD
:1005C40023F0030202EB93039C42F5D123462A460F
:1005D4002946044801F0CCFEC82CEDD938BD00BF33
:1005E400CDCCCCCC7C35000870B50024092C29DC9A
:1005F4004FF0FF31154801F091FB154E4FF0FF31DC
:10060400304601F08BFB0134124D2B68124AA2FBD9
:10061400031222F0030101EB92029B1A0F4A42F8E3
:10062400234021460E4801F0A3FE2B6801332B60C2
:10063400304601F0D9FB0B4801F0D6FB142002F040
:100644002BFBD3E7084801F093FE70BD3829002046
:1006540018290020F4050020CDCCCCCC582900204A
:10066400C43500086C290020EC35000870B500265C
:100674004FF0FF31184801F051FB184D4FF0FF3196
:10068400284601F04BFB164C2168164BA3FB0123B3
:1006940023F0030202EB9303C91A134B53F82120EE
:1006A4001644124801F064FE23680133236028468F
:1006B40001F09AFB0E4801F097FB23680A2B03D044
:1006C400322002F0E9FAD3E731460A4801F050FE3D
:1006D400094801F04DFE70BD6C2900201829002046
:1006E400F0050020CDCCCCCC5829002000360008E1
:1006F40038290020243600084036000810B582B09E
:1007040000241A4B1C601A4B1C6023460122194911
:10071400194801F0F3FA234605221849184801F054
:10072400EDFA234622461749174801F0E7FA052354
:10073400019300934FF4007322461449144802F0C5
:100744000DFA08B102F0D1FA0523019307230093AF
:100754004FF4007300220F490F4802F0FFF908B16B
:1007640002F0C3FA002002B010BD00BFF40500205F
:10077400F005002054360008182900205C360008D3
:1007840038290020643600086C290020ED05000893
:100794006C36000871060008783600087047FEE7DA
:1007A400FEE7FEE77047000082B00E4B9A6942F004
:1007B40001029A619A6902F001020092009ADA69D0
:1007C40042F08052DA61DB6903F080530193019BAC
:1007D400054A536823F0E06343F00073536002B0AA
:1007E400704700BF001002400000014010B50446ED
:1007F4000E4B18784FF47A73B3FBF0F30C4A10687D
:10080400B0FBF3F000F0BEF968B90F2C01D9012058
:100814000AE0002221464FF0FF3000F07FF9054B3B
:100824001C60002000E0012010BD00BF000000207B
:10083400080000200400002008B5074A136843F0AC
:1008440010031360032000F057F90020FFF7CEFFD8
:10085400FFF7AAFF002008BD00200240014B1868E2
:10086400704700BF8C290020014B1868704700BFF7
:100874000800002008B5FFF7F7FF044B5B68C3F3DB
:100884000223034AD35CD84008BD00BF00100240D5
:10089400AC36000808B5FFF7E7FF044B5B68C3F309
:1008A400C223034AD35CD84008BD00BF00100240F5
:1008B400AC360008F0B482B000252C46ABE0854F7E
:1008C400BB4210D007D9844FBB420CD007F5803708
:1008D400BB4208D013E0A7F58017BB4203D007F54D
:1008E4007027BB4207D18B68002B60D0012B59D0F5
:1008F4004261082503E0A7F58017BB42F3D0FF2E21
:1009040057D88446FF2E57D8A200DCF800300F27B2
:10091400974023EA070305FA02F21343CCF80030A8
:100924004B6813F0805F75D06C4B9A6942F00102FA
:100934009A619B6903F001030193019BA208971C30
:10094400674B53F827C004F003039F000F23BB40F9
:100954002CEA030C634B984234D003F5806398422D
:1009640000F0948003F58063984200F0918003F5D1
:100974008063984200F08E8003F58063984200F013
:100984008B8003F5806398421AD006231BE0CD6860
:10099400B5E7CD680435B2E7CD680835AFE7CD6873
:1009A4000C35ACE702610825A9E70025A7E7042573
:1009B400A5E700F1040CA5E7A4F108029200A4E75E
:1009C400052300E00023BB4043EA0C030232444FFA
:1009D40047F822304B6813F4803F5FD0424A1368D3
:1009E400334313604B6813F4003F5DD03E4A5368B1
:1009F400334353604B6813F4801F5BD03A4A9368C7
:100A0400334393604B6813F4001F59D0364AD368BC
:100A14001E43D66001340B6833FA04F256D0012227
:100A2400A24003EA020632EA0303F3D14B68122B15
:100A34003FF645AF122B3FF662AF01A757F823F0FC
:100A4400EB080008930900089D090008AF09000895
:100A54000309000803090008030900080309000842
:100A64000309000803090008030900080309000832
:100A74000309000803090008030900080309000822
:100A84000309000897090008A309000801239AE74D
:100A9400022398E7032396E7042394E7124A136892
:100AA40023EA060313609DE70F4A536823EA06030B
:100AB40053609FE70C4A936823EA06039360A1E717
:100AC400094AD36823EA0606D660A3E702B0F0BC5D
:100AD400704700BF000022100000311000100240D7
:100AE4000000014000080140000401400AB1016116
:100AF4007047090401617047074AD36823F4E0632F
:100B04001B041B0C000200F4E060034343F0BF63CA
:100B140043F40033D360704700ED00E030B4174B6A
:100B2400DB68C3F30223C3F10704042C28BF0424A5
:100B34001D1D062D18D9033B4FF0FF3505FA04F4AB
:100B440021EA0401994005FA03F322EA0303194355
:100B540000280BDB0901C9B200F1604000F56140D7
:100B640080F8001330BC70470023E5E700F00F0065
:100B74000901C9B2024B1954F4E700BF00ED00E0CB
:100B840014ED00E00138B0F1807F0AD2064B5860C2
:100B9400064AF02182F823100020986007221A6088
:100BA40070470120704700BF10E000E000ED00E056
:100BB40010B504460268136923F44053C1680B431B
:100BC400136183680269134342691A430168CB685D
:100BD40023F4B05323F00C031343CB60026853692E
:100BE40023F4407381690B4353610268124B9A42A8
:100BF4001FD0FFF73FFE00EB800303EB8303626823
:100C04009200B3FBF2F20D48A0FB023149096423C0
:100C140003FB11231B013233A0FB03235B0903F005
:100C2400F00202EB011203F00F03216813448B60FE
:100C340010BDFFF72FFEDEE7003801401F85EB51A2
:100C44002DE9F84305460F4616469946DDF82080FF
:100C54002C68246837EA04030CBF01240024B4423E
:100C64001FD1B8F1FF3FF3D0B8F1000F05D0FFF763
:100C7400F5FDA0EB09004045EAD92A68D36823F4BE
:100C8400D073D3602A68536923F00103536120238E
:100C940085F8393085F83A30002385F83830032058
:100CA40000E00020BDE8F88358B310B5044690F87E
:100CB40039300BB3242384F839302268D36823F401
:100CC4000053D3602046FFF773FF2268136923F4AF
:100CD400904313612268536923F02A035361226805
:100CE400D36843F40053D3600020E063202384F8E6
:100CF400393084F83A3010BD80F83830FFF7A2FB61
:100D0400D8E7012070472DE9F04182B01E4690F8E3
:100D14003930DBB2202B54D104460D4690460029CD
:100D240053D0002A53D090F83830012B51D00123EE
:100D340080F838300023C363212380F83930FFF76B
:100D44008DFD0746A4F82480A4F82680A368B3F593
:100D5400805F05D04FF00008002384F8383012E09B
:100D6400236913B14FF00008F6E7A8460025F3E71E
:100D740038F8023B2268C3F308035360E28C92B252
:100D8400013A92B2E284E38C9BB273B100963B4683
:100D9400002280212046FFF753FFE0B9002DE7D061
:100DA40015F8012B23685A60E8E700963B460022B9
:100DB40040212046FFF744FF78B9202384F83930D6
:100DC40000E0022002B0BDE8F0810120FAE7012032
:100DD400F8E70220F6E70320F4E70320F2E7704780
:100DE4001F4B5B6803F00C03042B14D0082B16D0A4
:100DF4001BB11C4B1C4A1A6002E01A4B1A4A1A60B7
:100E0400174B5B68C3F30313184AD15C154A136884
:100E1400CB4013607047134B134A1A60F0E7104A33
:100E240053685268C3F38343023312F4803F05D1FD
:100E34000F4A02FB03F30B4A1360E1E7084A5268C6
:100E440012F4003F05D00A4A02FB03F3054A13607B
:100E5400D6E7054A02FB03F3024A1360D0E700BF5A
:100E6400001002400800002000127A009C3600089E
:100E740000093D0008B500F025FE08BD174B1B68AE
:100E840093F8213013F0020F09D010B5144B1968F0
:100E940051B18022134802F0CDFA124810BD114B13
:100EA40000221A700F48704700F023FD68B10D4B03
:100EB4000D4A92E80300186019710A4C2046FFF7A6
:100EC4002FFA0A4B1B882352E7E7064B084A92E89D
:100ED400030018609980090C9971EEE790290020AD
:100EE4008C06002008060020B4360008C43600082A
:100EF400BC36000810B50446094801F039FA00F080
:100F0400F8FC012807D0FFF7B9FF0146224605483F
:100F140001F02EFA10BD204600F018FDF3E700BFE3
:100F24009C3F0008C836000838B5AA4B1A6892F8E6
:100F3400213043F0010382F82130FFF79FFF01F0D5
:100F440017FA04E0A34B1B68012283F82020FFF763
:100F540091FF041EFBDB1B2CF4D09E4B1B6893F803
:100F64002020012A40D0022A48D0002CEFD0FF2CA8
:100F7400EDD0092C00F089807F2C00F08880082CAB
:100F840000F085800D2C00F0C9800A2C00F0C6808A
:100F9400B3F872204F2A02D90022A3F87220B3F8C2
:100FA4007450B3F872209542C0F0E1801A4482F87C
:100FB400224093F8213013F0010F40F00681854B55
:100FC4001A68B2F8723001339BB2A2F87230B2F8E8
:100FD40074100131A2F874104F2BB8D90023A2F871
:100FE4007230A2F87430B2E75B2C03D0002283F88D
:100FF4002020BAE7022283F82020A8E7002283F801
:101004002020412CA3D0422CA1D0442C15D0432C19
:10101400ABD1B3F87420B3F872108A4297D2134458
:1010240093F822106C4801F0A3F96A4B1A68B2F8DD
:1010340074300133A2F8743089E7B3F87430002BAC
:1010440085D0664801F094F9624B1A68B2F874309E
:10105400013BA2F874307AE7604801F089F9013461
:101064005C4B1868B0F87430A342F5DC2230FFF70B
:1010740041FF584B1C6804F12200FFF751F980B27C
:10108400A4F87200A4F8740061E70024E8E7B3F858
:10109400741000293FF45BAFB3F87220013A92B2A6
:1010A400A3F87220013989B2A3F874108A420BD8CC
:1010B4004B4801F05DF9474B1B68B3F872201344A9
:1010C400002283F8222042E701F12000184401F1B4
:1010D40021042344521A991C023000F098FF3D4C1D
:1010E4002368B3F872201A44002182F82210B3F85E
:1010F400742020321344991C3A4801F039F92368CA
:10110400B3F8744003E0354801F032F90134314B4F
:101114001B68B3F87230A342F5DA18E700F0E9FB74
:10112400012811D0FFF7AAFE01F022F9294B1C680F
:101134005022002104F1220002F062F90023A4F8F5
:101144007230A4F8743002E7224B1B6893F8213004
:1011540013F0010F07D11F4B1868B0F8721022303A
:1011640000F0CAFBDEE7204801F002F9F3E705F1DD
:101174002100184405F120011944521B02310230A8
:1011840000F045FF134B1B68B3F87420991881F8DD
:10119400224093F8211011F0010F04D10D4B1B686C
:1011A400B3F874400AE020321344991C0F4801F04C
:1011B400DFF8F3E7094801F0DBF80134054B1B685D
:1011C400B3F87230A342F5DCF9E62146024801F097
:1011D400CFF8F4E690290020D4360008D036000871
:1011E400E0360008D83600089C3F0008E4360008C2
:1011F400044B1B6893F8212060F3410283F82120FB
:10120400704700BF90290020024B1860024B196000
:10121400704700BFF8050020FC050020024B186051
:10122400024B1960704700BF00060020040600202E
:1012340010B582B019491A48FFF7E6FF19491A4850
:10124400FFF7ECFF7821012001F00CFA174B18602E
:10125400E0B10A230193152300934FF40073002295
:101264001349144801F07AFC044600231A46124933
:101274000E48006800F042FD0120FFF7B9FF5CB1A1
:10128400204601F032FD002002B010BD0B4801F0F1
:101294006FF84FF0FF30F7E70020F5E7003500085E
:1012A4007834000800350008003500089029002033
:1012B4002D0F00080037000808370008E83600083A
:1012C40008B5024801F054F8002008BD10370008A2
:1012D40038B50546046803E0074801F049F8246876
:1012E400AC4208D0A4F11401044801F041F8236889
:1012F400AB42F1D1F3E738BD24370008E4360008E7
:1013040008B501F04BF8002008BDF8B500230B61C7
:10131400CB684BB304460E460B7A3BB30F68B0B1AF
:101324000025FEF77DFF35B914F8043C23F0800353
:10133400327A93420ED1736800252468A7420DD0F7
:10134400013543F8044BF268AA42F6D107E03C4663
:101354000125E6E7FEF768FF002403E00024FEF71A
:1013640063FF35612046F8BD0024FBE70024F9E75C
:10137400F8B504460D4617461E46084601F0D4F952
:101384000430206025726760E66000232361F8BDA5
:101394002DE9F043AFB0082321AA012129A8FFF7C2
:1013A400E7FF434A0821434800F0E2FF4FF00808F2
:1013B40003E0414800F0DCFFA04608F1FF34B8F137
:1013C400000FF6D13D4800F0D3FF002765E07822F6
:1013D400494603A802F006F83046FEF725FF94F8C4
:1013E40029300093A4F10C0308221146344800F07C
:1013F400BFFF94F8283003F00F03012B09D0022B10
:101404000BD073B1042B10D0032B12D0E069034628
:1014140014E02C4800F0ACFFF8E72B4800F0A8FFDC
:10142400F4E72A4800F0A4FFF0E7294800F0A0FF01
:10143400ECE7284800F09CFFE8E701331A78232AF8
:10144400FBD0226A2169411AC31A1344642000FBA9
:1014540003F3606A0190606B0090B3FBF2F31144F4
:101464001D4800F085FF01352D9BAB4214DD2EABEA
:1014740003EB850353F8344CA4F10C09FEF7D0FEBA
:10148400064614F8043C23F080039DF8AC209342F4
:101494009DD0FEF7C9FEE6E737B129A93846FFF724
:1014A40034FF07464546DFE700202FB0BDE8F08350
:1014B40028370008303700087437000878370008E8
:1014C400B8370008C4370008D0370008DC370008F4
:1014D400E8370008F4370008003800082DE9F04127
:1014E40090B0082303AA02210BA8FFF741FF344A56
:1014F4000821344800F03CFF4FF0080803E032486C
:1015040000F036FFA04608F1FF34B8F1000FF6D121
:101514002E4800F02DFF002746E0FEF785FE01353A
:101524000F9BAB423FDD10AB03EB850353F8346CE8
:10153400FEF776FE16F8043C23F080039DF8342071
:101544009342EAD1FEF770FE06F10804B3689C42A8
:1015540017D0A6F10C03308A224600211268944267
:1015640001D00131FAE70191009008221146184890
:1015740000F0FEFE2046FFF7ABFE164800F0F8FE32
:10158400CDE7A6F10C03308A2246002100E00131A8
:1015940012689442FBD101910090082211460E4832
:1015A40000F0E6FEBBE737B10BA93846FFF7ADFE06
:1015B40007464546B4E7002010B0BDE8F08100BFFF
:1015C40028380008343800087437000850380008F8
:1015D400683800089C3F000878380008F0B591B0DE
:1015E400082303AA0A210BA8FFF7C2FE294A0821EF
:1015F400294800F0BDFE082703E0284800F0B8FEA3
:1016040027467C1E002FF8D1254800F0B1FE0026A5
:101614002FE0FEF709FE01340F9BA34228DD10AB37
:1016240003EB840353F8345CFEF7FAFD15F8043C2D
:1016340023F080039DF834209342EAD1FEF7F4FDB1
:10164400EB690193AB690093A5F10C0308221146E1
:10165400144800F08DFE15F8033C13F0010F03D07D
:10166400114800F085FED6E7104800F081FED2E76D
:1016740036B10BA93046FFF748FE06463C46CBE799
:1016840000F042FA01460A4800F072FE002011B050
:10169400F0BD00BF8838000890380008743700088F
:1016A400B8380008DC380008F438000800390008AD
:1016B4001039000838B50D4800F05AFE0C4B1C6870
:1016C40000E008340B4B1B68A3420CD925680222A6
:1016D4000949284601F09CFE0028F2D02946074813
:1016E40000F046FEEDE7002038BD00BF28390008B1
:1016F400F8050020FC0500203C39000840390008AA
:101704000346027862B110B40C7834B1A24204D119
:10171400013301311A78002AF6D1181A10BC704727
:10172400001A704770B5164600252B464DE08B42D3
:1017340008D2002200F8012B01330478202CF6D0C3
:10174400092CF4D0072D07D88B4215D2222C15D0A2
:1017540046F8250001352FE01D4800F009FE00245D
:1017640005E056F824101B4800F002FE0134A5429F
:10177400F7D8194800F0FCFD284670BD013001334C
:1017840046F82500013501E0013001330278222AB0
:1017940009D08B4207D25C2AF6D14278222AF3D1AF
:1017A40001300133F0E78B42E6D2002200F8012B2E
:1017B40001330AE0013001330278202A03D0092AD8
:1017C40001D08B42F6D38B42D6D28B42B5D3D3E72A
:1017D400C8390008E83900089C3F000838B50E48AD
:1017E40000F0C6FD0D4B1C6800E008340C4B1B6870
:1017F400A3420CD9256806220A49284601F008FEAE
:101804000028F2D1A91D084800F0B2FDEDE7074811
:1018140000F0AEFD002038BDEC390008F8050020CA
:10182400FC050020083A0008E83900089C3F00083D
:10183400F8B507460E460F4B1C6800E008340E4B03
:101844001B68A34214D9256806220C49284601F0D6
:10185400DFFD0028F2D132463946A81D01F0D8FD3B
:101864000028EBD1B31DEB5C002BE7D1606800E0EE
:101874000020F8BDF8050020FC050020083A000807
:1018840008B5FFF785FD002008BD08B500F0FCFD94
:10189400002008BDF0B589B004460D461646002167
:1018A40000E00131635C202B03D0092B01D0A94255
:1018B400F7D3A9B12046FFF7BBFF074698B1202212
:1018C4000021684601F09CFD6A4629462046FFF740
:1018D40029FF58B16946B8473060002009B0F0BD0F
:1018E4004FF0FF30FAE74FF0FF30F7E74FF0FF30EB
:1018F400F4E701207047000010B582B0044601E00F
:10190400013401392378202BFAD0092BF8D011B9EE
:10191400002002B010BD01AA2046FFF7BBFF80B92A
:101924000198F6E701331A78202A01D0002AF9D168
:1019340000221A702146044800F01AFD4FF0FF30CF
:10194400E7E72346EFE700BF103A00082DE9F84324
:10195400037833B10646214B1D684FF00008474613
:1019640012E000210846FFF739FF34E021464046E3
:10197400FFF7C6FE8146874200DCB9462146184877
:1019840000F0F6FC4F460835164B1B68AB421AD9DB
:101994002C6806221449204601F03AFD0028F2D1B1
:1019A40006343046FEF7BCFC02462146304601F0C0
:1019B4002FFD0028E7D1002FD8D12046FEF7B0FC38
:1019C4000746A046D2E7B8F1000F04D03A46414694
:1019D400304600F039FBBDE8F88300BFF80500206D
:1019E40040390008FC050020083A00080138B0F12D
:1019F400807F0DD2074B186003F60F53FF221A7035
:101A04000020A3F60B531860083B07221A607047A6
:101A14000120704714E000E0004870479006002061
:101A2400004870479026002010B5FFF7D9F9FEF75B
:101A3400EFFC0A4B18680A4BA3FB00308009FFF740
:101A4400D5FF00F0A3F8FFF7E7FF0446FFF7E8FF30
:101A54000146204600F036FD10BD00BF08000020FE
:101A6400D34D621008B500F0DBF900F053F800F034
:101A7400E5F908BDF0B583B005460D238DF80730B0
:101A840000240F4B83F8384000F0F2FA07460DE0CB
:101A940001231A460DF107010948FFF734F9012320
:101AA4001A4631460648FFF72EF90134BC4204D2E7
:101AB4002E192B5D0A2BF2D1EAE703B0F0BD00BF6B
:101AC400D82800200F4B1B681A6812F0200F03D08F
:101AD4005868C0B2C0B2704700B583B01A6812F03B
:101AE400080F06D0002201921A6801925B680193E4
:101AF400019B0A2001F0D0F84FF0FF30C0B203B0D0
:101B04005DF804FBD8280020014B1868704700BF1B
:101B14009026002008B5094A13680133136001F0C8
:101B240017F8036C013B036413B101F0D3F908BD4A
:101B3400C36B036401F03AF8F7E700BF9026002076
:101B4400021E15DB0C4880FB0213D117C1EBA31155
:101B54004FF47A7303FB01F1521A03FB02F303F20D
:101B6400E73380FB0302D817C0EBA2100844704788
:101B74004FF0FF30704700BFD34D62100020704714
:101B840000207047002070470020704710B5044CB7
:101B9400044B9C4203D254F8043B9847F8E710BD29
:101BA400043500080835000810B5044C044B9C4269
:101BB40003D254F8043B9847F8E710BD08350008F1
:101BC4001035000808B5FFF7EFFFFEF7C7FB08BDA7
:101BD40000B583B0142301930A2300934FF4806368
:101BE40000220449044800F0B9FF01F07EF803B074
:101BF4005DF804FBC91B00084C3A000808B5FEF761
:101C04000FFBFFF711FF00F0C9FB01F0AFF900F083
:101C14001BFEFFF7DDFF01F0B7F900F04FF800F00D
:101C240039FE002008BD08B5FFF7E8FF002008BD15
:101C34001F4B1A689A423AD070B513E0284600F058
:101C4400FBFD012827D000F0CDFE3046FEF7ECFA6C
:101C5400606900F015FD284600F0D9FD144B1A68A0
:101C64009A4223D0FEF7DCFA0646114B1A689A42D0
:101C74001AD01C68254655F81429636853602268F5
:101C84001A606460246000F0A1FEE36D002BD5D0DF
:101C940028469847D2E7284600F081FD00F0A2FECE
:101CA4003046FEF7C1FA01E0FEF7BEFA70BD704798
:101CB400A42A002008B5FFF7BBFFFCE710B584B0E9
:101CC4000A4C202303931F2302934FF48073019340
:101CD400074B00930023074A0749204600F01CFFE6
:101CE400204601F002F804B010BD00BF9426002085
:101CF4000C270020B91C0008543A000870B50446AB
:101D040016461D460A46022100F020FD04F1140384
:101D1400A3616361A6836572002070BD2DE9F04163
:101D240082B004460191FEF77BFA0746A38BF3B910
:101D3400019B13B300F00CFF06460023036304F178
:101D4400140594F8098000F05FFFB8F1000F19D072
:101D5400B8F1010F1FD0019B002B3ADC3846FEF787
:101D640063FA00F0AFFD306B02B0BDE8F081013BD7
:101D7400A383FEF759FA0020F6E7FEF755FA6FF051
:101D84000100F1E706F114036A6813606A68B2613E
:101D94006B607561DFE763699D420FD096F835107B
:101DA40093F82120914201D31B68F5E706F1140250
:101DB40059680A605968B1615A6073619D42CAD119
:101DC40006F114036A6813606A68B2616B60756136
:101DD400C1E706F1440401AA0021204601F063F89A
:101DE400204600F0DDFFB9E738B50446FEF718FADF
:101DF400054604F114036069834209D0143800F0E5
:101E040051FF01242846FEF70FFA34B9002038BDEB
:101E1400A38B0133A3830024F4E700F053FDF5E71B
:101E240008B5FEF7FDF9044A13780133DBB21370E9
:101E3400FEF7FAF908BD00BF9429002008B5FEF7A3
:101E4400EFF9044A1378013BDBB21370FEF7ECF9A7
:101E540008BD00BF942900202DE9F04385B00D9EF4
:101E64000E9F17F0400F19D0DFF84C9117F0100FA8
:101E740001D027F0010717F0010F12D04FF0300CFA
:101E840017F0020F14D0002A0EDB17F0040F26D12E
:101E940017F0080F26D14FF0000E0BE0DFF81C916D
:101EA400E4E74FF0200CEBE752424FF02D0E01E037
:101EB4004FF0000E8ABB30238DF800300124B44269
:101EC4002DDC32460C9B9B1A17F0110F33D1BEF157
:101ED400000F02D0002B00DD013B1D4623E04FF034
:101EE4002B0EE7E74FF0200EE4E702F00F0812098B
:101EF40019F8088004AD254405F8108C0134002A33
:101F0400DDD00A2BF1D12B4DA5FB0285ED0805EBA5
:101F14008508A2EB48082A46EAE70024EFE72246B0
:101F2400D0E701301D466B1E002D04DD8842F8D237
:101F340020250570F5E7BEF1000F05D0884201D2D7
:101F440080F800E0013B013017F0100F02D00DE0E3
:101F540001302B465D1E002B04DD8842F8D280F848
:101F640000C0F5E72B4601E001302A46551EA24287
:101F740006DD8842F8D230220270F5E701301446BB
:101F8400621E002C0ADD4EB18842F7D204AC144420
:101F940014F8104C0470F1E7013013465A1E002B5C
:101FA40004DD8842F8D220230370F5E705B0BDE8CC
:101FB400F08300BFCDCCCCCCEC3B0008003C000847
:101FC40010B4032A1FD9CCB210F0030F1DD144EA78
:101FD400042444EA044403460F2A09D91C605C60C3
:101FE4009C60DC60103A1033F6E743F8044B043A83
:101FF400032AFAD802E003F8011B2246541E002AE1
:10200400F9D110BC70470346F8E70346F6E710B46D
:10201400884215D98B18834214D98418511E6AB189
:1020240013F8012D04F8012D0A46F7E711F8012BE6
:1020340003F8012B2246541E002AF7D110BC704726
:102044000346F8E70346F6E78AB130B4144603467C
:102054000D7801311D7001331DB1013CF8D130BC44
:102064007047013CFBD0002203F8012BF9E77047CD
:1020740003461A780AB10133FBE7181A70470000C7
:102084002DE9F04F87B0824604911446059310EB76
:10209400010803D3C34304934FF0FF38564601E0CD
:1020A400013601342378002B00F05181252B03D015
:1020B4004645F5D23370F3E7002502E045F01005FC
:1020C4001446621C63782D2BF8D02B2B08D0202BC0
:1020D40009D0232B0AD0302B0BD145F00105EFE7B3
:1020E40045F00405ECE745F00805E9E745F020056F
:1020F400E6E7A3F13001092910D92A2B1BD04FF0B0
:10210400FF3713782E2B21D04FF0FF39117868292F
:1021140045D06C2943D01446002141E000271378B0
:10212400A3F130010929ECD807EB8707013203EB4F
:102134004707303FF3E7A21C059B191D05911F6853
:10214400002FDEDA7F4245F01005DAE7511C5378A0
:10215400A3F13000092818D92A2B19D00A464FF0C8
:102164000009D3E709EB8909013103EB4903A3F122
:1021740030090B78A3F13002092AF3D90A46B9F1E0
:10218400000FC3DA4FF00009C0E74FF00009F0E791
:102194000232059B191D0591D3F80090EFE7541CFA
:1021A4002378252B00F09080C0F0AF80782B00F2CC
:1021B400AC80582BC0F0A980583B202B00F2A5809E
:1021C400DFE803F09BA3A3A3A3A3A3A3A3A3A31147
:1021D4009FA3A3A3A39FA3A3A3A3A3886CA3A33098
:1021E400A3B2A3A3B40015F0100F09D0059B1A1DC8
:1021F40005921B78464500D23370013609E001365A
:10220400013F002FF2DD4645F9D220233370F6E773
:102214000136013F002F7FF744AF4645F8D2202313
:102224003370F5E7059B1A1D0592D3F800B0BBF196
:10223400000F0DD05846FFF71BFFB9F1000F02DD68
:10224400814500DA484615F0100F06D0002312E04D
:10225400DFF818B1EEE701361F467B1EB84204DAF8
:102264004645F8D220223270F5E71F46EEE70136E4
:102274000BF1010B0133834207DA4645F7D29BF891
:1022840000203270F3E701361F467B1EB842BFF6CA
:1022940008AF4645F7D220223270F4E7B7F1FF3F8A
:1022A4000ED0059B1A1D05921A680295CDF804906C
:1022B4000097102341463046FFF7CEFD0646F0E670
:1022C40045F001050827ECE7464501D22523337084
:1022D4000136E6E608236C292AD068292DD0059A10
:1022E400111D059112680295CDF80490009741469E
:1022F4003046FFF7B1FD0646D3E645F0400510230E
:10230400E9E745F002050A23E5E7464501D225231E
:102314003370721C237823B1424500D273700236A5
:10232400BFE6013C1646BCE60A23D4E71023D2E7F5
:10233400059A111D05911268D5E7059A111D05919D
:1023440011688AB215F0020FCDD00AB2CBE7049B14
:102354001BB1464506D200233370A6EB0A0007B032
:10236400BDE8F08F002308F8013CF6E75C3A00086A
:102374000FB410B582B004AB53F8042B0193064C90
:102384007F212046FFF77CFE2046FFF773FB02B057
:10239400BDE8104004B070470C28002000B583B09D
:1023A4000948FFF7E5FF0948FFF7E2FF084B0093F0
:1023B4000323012219460748FFF7DAFF0648FFF70F
:1023C400D7FF03B05DF804FB643A0008703A0008D4
:1023D400B43A0008943A0008C03A0008E8B110F092
:1023E400FF020AD110F47F4F0BD110F47F0F0ED1EE
:1023F400030E0A4AD05C19307047084B985C0130D0
:102404007047C0F30723054AD05C09307047C0F316
:102414000743024AD05C113070477047EC3A000819
:10242400164B196842680A4490420FD053886BB91E
:10243400134B1B68934209D0124B1B68934216D06E
:102444005368436053680B44421A9A6083680B4490
:1024540098420BD05A884AB90A4A1268824209D073
:1024640042685A6042680A445B1A93607047054B9D
:102474001860E5E7034A1360F2E700BF90280020E4
:102484008C280020B428002008B5084B1968084897
:10249400FFF76EFF074B19680748FFF769FF074B03
:1024A40019680748FFF764FF08BD00BFBC28002077
:1024B400143C0008C0280020283C0008B82800204C
:1024C4003C3C000870B50A4621F00303182B06D9DA
:1024D400C41C24F00304A3F11801A14204D2014650
:1024E4001148FFF745FF70BD1B1BA3F118010F4AEC
:1024F40011600F4D2C604FF4F5522280A3F10C01B2
:1025040061600023A360638060180A4E30606252E9
:10251400012242804160816007490848FFF7EEFBD1
:102524002A68074B1A60DEE7643C0008BC280020D8
:10253400902800208C2800205C3C0008942800206F
:10254400B428002000287AD0F8B50546033525F0D4
:1025540003053D4B1B689D4273D80B2D00D80C25F9
:102564004FF0FF313948FFF7D9FB394B1E68394B1F
:102574001868331A1DE001236380231AFB1A364AB4
:1025840011680B441360354A1268934247D9334AA1
:10259400136044E05B6803442D4A13602C4B1B68B2
:1025A4005A88002A40D02E4A12689342F2D13BE066
:1025B4006368254A1268511B99423BD9C418618843
:1025C4000029F5D16768F91A0C39A942F0D305F14D
:1025D400180C6145CFD3E9180C3100EB010C4FF412
:1025E400F55747520027ACF802706768CCF80470BE
:1025F400CCF80830616001236380DCF804300C32CD
:10260400934201D003449960134A13682B440C335A
:102614001360124A1268934201D9104A13604FF4AE
:10262400F5532380A642B9D00848FFF7DDFB04F137
:102634000C0003E00548FFF7D7FB0020F8BD00209D
:1026440070470020FAE700BFBC280020942800202F
:10265400B428002090280020C0280020B82800209A
:102664008C28002038B501FB00F42046FFF76AFFF0
:10267400054618B122460021FFF7A2FC284638BDC2
:10268400002842D038B50446204B1B68834203D847
:102694001F4B1B68834200D838BDA0F10C054FF0D6
:1026A400FF311C48FFF73AFB34F80A3C23B134F8F5
:1026B4000C3CB3F5F55F0AD01748FFF759FE34F820
:1026C4000C3C34F80A2C29461448FFF751FE002329
:1026D40024F80A3C4FF4F55324F80C3C104B1B68C7
:1026E400AB4201D90E4B1D60084B1B68EB1A54F822
:1026F400081C0C4A5B1A11680B4413602846FFF748
:102704008FFE0448FFF770FBC6E77047902800204F
:102714008C28002094280020A03C0008BC3C000821
:10272400B4280020C0280020002300E00133022B3D
:1027340007DC1A0104498A5C8242F7D101EB0310D9
:1027440070470020704700BF0C0000202DE9F041C5
:1027540006460F4690460846FFF7E6FF054600F09A
:1027640035F96B682C1D9C4201D01B68FAE700F018
:1027740039F967F07F073772082241463046FFF780
:1027840063FCFDF74DFD06F10C036A6853606A684B
:10279400F2606B603461FDF747FDBDE8F08110B570
:1027A400044600230372FDF73BFD04F10C03E168CA
:1027B40022694A60E16811602361E360FDF734FD3A
:1027C40010BDF8B507460E46FFF7AEFF0446C068D5
:1027D400FFF7B8FE0546C0B1E2680021FFF7F0FB41
:1027E4002F7200236B72082231462846FFF72CFC17
:1027F400FDF716FD221D05F10C0361684B6061684D
:10280400E96063602A61FDF70FFD2846F8BD10B545
:10281400044600230372FDF703FD04F10C03E16891
:1028240022694A60E16811602361E360FDF7FCFC02
:102834002046FFF725FF10BD90F90830002B01DB7F
:10284400002070470120704700230C4A13801F2B7F
:1028540007DC0B4901EBC302526041F8332001331A
:10286400F5E7084B1F221A700023074A1360074A32
:102874001360074B5B601B60704700BFC4280020D7
:1028840098290020982A00209C2A0020A02A0020B1
:10289400A42A002008B5084B1868FFF79FFD0138EB
:1028A400064B53F83000A0F11402054B1A600830AF
:1028B400FDF7EBFC08BD00BFA02A002098290020EA
:1028C4009C2A002038B5FDF7ABFC0446144BB3F941
:1028D4000030C3B9134B1868FFF780FD431E124A3A
:1028E40052F83310A1F114021048006890420AD043
:1028F4000F4D2B700D4B1A600E4B1B783BB10831FA
:102904001C30FDF794FC2046FDF78EFC38BD0831E1
:102914001C30FDF78CFC2046FDF786FCF6E700BF73
:10292400C4280020A02A0020982900209C2A0020E6
:10293400982A00209429002010B50446FDF770FC65
:1029440094F9343023F00F0343F0010384F8343056
:1029540094F83520094B03EBC20304F114025968BF
:102964000A605968A1615A606361A16B044A1368E3
:102974000B431360FDF758FC10BD00BF98290020DD
:10298400A02A002010B50446FDF74AFC04F1140304
:102994006169A2694A6061691160A361636194F825
:1029A4003520084B03EBC20153F83230994202D070
:1029B400FDF73AFC10BDA16B034A136823EA010337
:1029C4001360F5E798290020A02A002008B5FDF738
:1029D40027FC034A138801331380FDF725FC08BD47
:1029E400C428002008B5FDF71BFC0B4A1388013BE3
:1029F4001BB21380002B02DDFDF716FC08BD134645
:102A040000221A80FDF710FC044B1B68002BF5D044
:102A1400FFF758FFF2E700BFC42800209C2A0020DB
:102A240038B5144B1C68FDF7FBFB05462046FFF741
:102A3400A9FF042384F8343004F1440000F095F92C
:102A44002046FFF7F9FE01280DD004F114020A4BC9
:102A540019684A6061611A60A3612846FDF7E4FBC6
:102A6400FFF730FF38BD236F002BEED12046FFF770
:102A740096FEF2E79C2A0020A42A0020F0B583B039
:102A8400044617460898099A9DF828500B9E04F1AD
:102A94001401A161616127626362A062E262232181
:102AA400FFF78EFAA16AE36A1A1F104B0A44616A9F
:102AB400206A00F0A5FBE06184F8365084F83550B4
:102AC4000025A563E6632664256384F834502567EE
:102AD4006567019500952346054A214604F14400A3
:102AE40000F02FF9284603B0F0BD00BF252A0008E6
:102AF400F92A000810B56FF00102026300F1140214
:102B040044698169616044690C6082614261FFF7D4
:102B140013FFFFF7D7FE10BDF0B585B005460C4690
:102B240016461F460A460121FFF710FE0D9B03932C
:102B34009DF8303002930B9B01930A9B00933B4614
:102B4400324621462846FFF799FF05B0F0BD000044
:102B5400014B1868704700BF9C2A00202DE9F04300
:102B640085B004460F4690461D4601460120FFF7F6
:102B740028FE064688B12846FFF7E4FC814680B16A
:102B84000D9B03939DF830300293019500904346CA
:102B94003A4621463046FFF771FF304605B0BDE89E
:102BA400F0833046FFF733FE4E46F6E710B5FDF7E7
:102BB40037FB134B1B6893F8342002F00F02012AF1
:102BC40003D159699A69914203D1FDF72DFB002085
:102BD40010BD03F114044A60596911609C615C6181
:102BE40093F83510074A02EBC10251680C60516832
:102BF400996154605A61FDF717FBFFF763FEE6E73E
:102C04009C2A00209829002038B590F8343003F02D
:102C14000F03012B17D10446FDF702FB054694F977
:102C2400343023F00F0343F0020384F83430204699
:102C3400FFF7A8FE04F1440000F012F92846FDF75E
:102C4400F3FA002038BD4FF0FF30FBE770B582B0D7
:102C54000190FDF7E5FA05460E4B1C682046FFF788
:102C6400D3FF04F1440601AA0021304600F01BF909
:102C7400304600F095F82846FDF7D6FAFFF722FE15
:102C8400236B13F1020F02D0002002B070BD0023A9
:102C94002363F9E79C2A002008B5FEF751FFFFF7EC
:102CA400D5FF08BD38B590F8343003F00F03022B7C
:102CB40018D10446FDF7B4FA054604F1140361691A
:102CC400A2694A6061691160A361636104F144000F
:102CD40000F0C6F82846FDF7A7FA2046FFF72CFEB9
:102CE400002038BD4FF0FF30FBE708B590F83610F0
:102CF40080F8351001228A408263022280F8342051
:102D0400FFF7D0FFFFF724FF08B1FFF7DBFD00203A
:102D140008BD10B49DF8044024F001044472C1615C
:102D240002620022826243621346002B01DD10BC62
:102D340070479A1C00EBC202111D9160516001336F
:102D4400F3E770B582B0044615461E460A460A21CA
:102D5400FFF7FCFC9DF81C300093069B3246294685
:102D64002046FFF7D6FF02B070BD70B50446FDF7EC
:102D740057FA0022002A06DDFDF756FA2046FFF72F
:102D84000EFD002070BD931C04EBC303191D5E6887
:102D94009D6875605E682E60996059600132E9E74C
:102DA40070B582B00446FDF73BFA0022002A26DD06
:102DB400637A23F001036372FDF736FAFEF7A4FE8B
:102DC400636A1844A062FDF72BFA234B0193002297
:102DD4003AB3224A136801331360019B04F11402CD
:102DE40019684A60196861611A60A361637A43F0E3
:102DF40001036372FDF718FA002002B070BD931C42
:102E040004EBC303191D5E689D6875605E682E60DF
:102E1400996059600132C9E702AB03EB820343F8BE
:102E2400041C02AB03EB820353F8045CD3000A498D
:102E340001EBC20149688D420BD029681433CB1AC7
:102E44009B6AA56AAB42E7D05B1B6FF00045AB42BF
:102E5400E2D20132BCE700BFCC280020C828002001
:102E6400437A13F0010F02D14FF0FF30704770B571
:102E74000446FDF7D5F90022002A07DDFDF7D4F951
:102E8400637A23F001036372002070BD931C04EB8A
:102E9400C303191D5E689D6875605E682E60996045
:102EA40059600132E8E7032905D8DFE801F006029A
:102EB400090E436A13600020704713684362FAE7FF
:102EC400437A23F002034372F5E7437A43F00203A3
:102ED4004372F0E7F8B5FEF717FE0546FDF7A0F9D3
:102EE4000646214B1C689C4203D13046FDF79CF9F1
:102EF400F8BDA4F114076069281A6FF000439842E2
:102F0400F3D2002114E0A4F114028B1C02EBC302DF
:102F1400043204EBC30353F8105C53F80C0C6860E0
:102F240053F8105C056043F80C2C43F8102C013165
:102F34000029E8DDA368E0689847FEF7E5FD05464B
:102F440014F80B3C03F00302032A04D023F001031A
:102F540004F80B3CC5E723F0010304F80B3C3846A6
:102F6400FFF71EFFBDE700BFCC280020002303B1FC
:102F74007047044901EBC302526041F83320013326
:102F8400F5E700BFCC2800207047000010B52148A9
:102F9400FFF7EEF9204C21782048FFF7E9F9237870
:102FA40013F0010F1CD11C4B1B7813F0020F1BD123
:102FB400194B1B7813F0040F1AD1174B1B7813F01D
:102FC400080F19D1144B1B7813F0100F18D1124BA2
:102FD4001B7813F0800F17D11148FFF7C9F910BD02
:102FE4001048FFF7C5F9DEE70F48FFF7C1F9DFE73F
:102FF4000E48FFF7BDF9E0E70D48FFF7B9F9E1E73F
:103004000C48FFF7B5F9E2E70B4B19680B48FFF7DB
:10301400AFF9E4E7F83C000829ED00E0043D0008BE
:103024009C3F00081C3D0008283D0008343D000872
:10303400443D0008503D000838ED00E0583D0008CC
:1030440010B51D48FFF794F91C4C21781C48FFF774
:103054008FF9237813F0010F17D1184B1B7813F055
:10306400020F16D1154B1B7813F0080F15D1134B13
:103074001B7813F0100F14D1104B1B7813F0800F32
:1030840013D11048FFF774F910BD0F48FFF770F91A
:10309400E3E70E48FFF76CF9E4E70D48FFF768F93A
:1030A400E5E70C48FFF764F9E6E70B4B19680B48B2
:1030B400FFF75EF9E8E700BF683D000828ED00E08F
:1030C4007C3D00089C3F0008943D0008A03D00089A
:1030D400AC3D0008B83D000834ED00E0C43D0008F4
:1030E40010B52148FFF744F9204C218889B22048C3
:1030F400FFF73EF9238813F0010F1CD11B4B1B88EB
:1031040013F0020F1BD1194B1B8813F0040F1AD1B3
:10311400164B1B8813F0080F19D1144B1B8813F49A
:10312400807F18D1114B1B8813F4007F17D11148ED
:10313400FFF71EF910BD1048FFF71AF9DEE70F4834
:10314400FFF716F9DFE70E48FFF712F9E0E70D483D
:10315400FFF70EF9E1E70C48FFF70AF9E2E70B483D
:10316400FFF706F9E3E700BFD43D00082AED00E0CD
:10317400E43D00089C3F0008FC3D0008083E0008B0
:10318400143E00081C3E0008243E0008303E00089F
:1031940008B5154B1B6813F0020F13D1124B1B68B3
:1031A40013F0804F09D0114B1B787BB9104B1B785F
:1031B4007BB9104B1B889BB273B90B4B1B68002B5C
:1031C4000DDB08BD0C48FFF7D3F8E7E7FFF7DEFE99
:1031D400ECE7FFF735FFECE7FFF782FFEDE7074881
:1031E400FFF7C6F8EDE700BF2CED00E029ED00E0A5
:1031F40028ED00E02AED00E03C3E0008543E0008C3
:1032040070B40646043222F00705A5F140000022FE
:103214000F2A04D80C4C40F822400132F8E745F854
:10322400201C002245F81C2C45F8182C45F8142CB9
:1032340045F8102C45F80C3C45F8086C4FF08073A9
:1032440045F8043C70BC7047EFBEADDE10B50446D3
:103254002C4B1B6813B19847002852D0216C2A4884
:10326400FFF786F8616A2948FFF782F8A16A2848BF
:10327400FFF77EF8E16A2748FFF77AF8216B2648C2
:10328400FFF776F861682548FFF772F8A1682448CB
:10329400FFF76EF8E1682348FFF76AF821692248CE
:1032A400FFF766F861692148FFF762F8A1692048D1
:1032B400FFF75EF8E1691F48FFF75AF8216A1E48D4
:1032C400FFF756F8616B1D48FFF752F8A16B1C48D5
:1032D400FFF74EF8E16B1B48FFF74AF8236813F039
:1032E400040F0AD0FFF734FC01461748FFF740F8F3
:1032F400FEF74EF8FFF74CFFFEE71448FFF738F8E7
:10330400F8E710BDD4280020643E0008743E00088D
:10331400843E0008943E0008A43E0008B43E000821
:10332400C43E0008D43E0008E43E0008F43E000811
:10333400043F0008143F0008243F0008343F0008FD
:10334400443F0008543F0008643F0008843F0008DD
:10335400002103E00B4B5B58435004310A480B4BEC
:1033640042189A42F6D30A4A02E0002342F8043B88
:10337400084B9A42F9D3FDF732FD00F00FF8FEF73F
:1033840052FC7047A83F0008000000203C000020C9
:103394003C000020B82A0020FEE7000070B500269B
:1033A4000C4D0D4C641BA410A64209D100F056F834
:1033B40000260A4D0A4C641BA410A64205D170BD18
:1033C40055F8043B98470136EEE755F8043B984717
:1033D4000136F2E7A03F0008A03F0008A03F000824
:1033E400A43F00080A44914200F1FF3300D1704722
:1033F40010B511F8014B914203F8014FF9D110BDFA
:1034040003460244934200D1704703F8011BF9E7D5
:1034140010B56AB10139841810F8013B11F8012F75
:10342400934203D1A04201D0002BF5D1981A10BDCC
:103434001046FCE7034610B5013932B111F8014FCB
:10344400013A03F8014B002CF7D100211A449342AE
:1034540000D110BD03F8011BF9E70000F8B500BF67
:10346400F8BC08BC9E467047F8B500BFF8BC08BC61
:103474009E46704768350008C1040008AC35000852
:10348400650500088436000801070008943900081F
:10349400B916000868390008E1150008B4390008B5
:1034A400E115000844390008E11400089C390008BB
:1034B400E11400085439000895130008A8390008DD
:1034C400951300087C39000805130008C03900086A
:1034D400051300088C390008C5120008283A0008B2
:1034E4008F180008403A000885180008343A00088C
:1034F400E1170008EC3C00088D240008811B00083B
:10350400851B0008891B0008351200088D1B000864
:103514006C65647368696E650000000074687265A8
:103524006164310074687265616432007468726544
:1035340061643220636F756E743A25640A0000007A
:103544007468726561643220657869740A000000E9
:103554007468726561643120636F756E743A2564B2
:103564000A0000005F5F636D645F74687265616484
:103574005F73616D706C65007468726561643A258F
:10358400642069732072756E6E6E696E672C207488
:10359400687265616420256420636F756E74203DD4
:1035A4002025640A000000005F5F636D645F746936
:1035B4006D65736C6963655F73616D706C65000044
:1035C4007468652070726F64756365722067656ED8
:1035D4006572617465732061206E756D6265723AFF
:1035E4002025640A000000007468652070726F640E
:1035F400756365722065786974210A0074686520B2
:10360400636F6E73756D65725B25645D20676574A9
:103614002061206E756D6265723A2025640A00008F
:1036240074686520636F6E73756D65722073756D54
:103634002069733A2025640A00000000746865203C
:10364400636F6E73756D65722065786974210A0005
:103654006C6F636B00000000656D7074790000008E
:1036640066756C6C0000000070726F64756365723F
:1036740000000000636F6E73756D657200000000DA
:103684005F5F636D645F70726F64756365725F63BF
:103694006F6E73756D65720000000000000000001D
:1036A40001020304060708090000000001020304E4
:1036B4006D7368200000000066696E736820000066
:1036C4003E00000025732573000000000800000080
:1036D4002563000008257320200800000820080046
:1036E400257300006E6F206D656D6F727920666FB3
:1036F40072207368656C6C0A00000000747368655E
:103704006C6C0000736872780000000048656C6C93
:103714006F2052542D546872656164210A000000C0
:103724002F0000007468726561640000252D2A2E44
:103734007320707269202073746174757320202063
:1037440020202073702020202020737461636B205C
:1037540073697A65206D61782075736564206C6582
:103764006674207469636B20206572726F720A003C
:103774002D000000202D2D2D20202D2D2D2D2D2D23
:103784002D202D2D2D2D2D2D2D2D2D2D202D2D2D7F
:103794002D2D2D2D2D2D2D20202D2D2D2D2D2D207C
:1037A400202D2D2D2D2D2D2D2D2D2D202D2D2D0A82
:1037B40000000000252D2A2E2A73202533642000C2
:1037C4002072656164792020000000002073757305
:1037D40070656E640000000020696E69742020200A
:1037E4000000000020636C6F73652020000000005F
:1037F4002072756E6E696E670000000020307825B7
:103804003038782030782530387820202020253032
:103814003264252520202030782530387820253042
:1038240033640A0073656D6170686F72650000002F
:10383400252D2A2E73207620202073757370656ED3
:1038440064207468726561640A000000202D2D2DC7
:10385400202D2D2D2D2D2D2D2D2D2D2D2D2D2D0AC4
:1038640000000000252D2A2E2A73202530336420E1
:1038740025643A00252D2A2E2A732025303364200E
:1038840025640A0074696D6572000000252D2A2ED6
:10389400732020706572696F6469632020207469E5
:1038A4006D656F757420202020202020666C616770
:1038B4000A000000202D2D2D2D2D2D2D2D2D2D20F8
:1038C4002D2D2D2D2D2D2D2D2D2D202D2D2D2D2D31
:1038D4002D2D2D2D2D2D0A00252D2A2E2A73203035
:1038E400782530387820307825303878200000006A
:1038F4006163746976617465640A00006465616378
:10390400746976617465640A0000000063757272FC
:10391400656E74207469636B3A3078253038780AA0
:10392400000000002D2D46756E6374696F6E204C87
:103934006973743A0A0000005F5F000025730A008F
:103944005F5F636D645F6C6973745F73656D0000C2
:103954005F5F636D645F6C6973745F7468726561E3
:10396400640000005F5F636D645F6C6973745F740F
:10397400696D6572000000005F5F636D645F76656A
:103984007273696F6E00000068656C6C6F000000F4
:103994006C697374000000006C6973745F73656D07
:1039A400000000006C6973745F7468726561640080
:1039B4006C6973745F74696D657200007665727307
:1039C400696F6E00546F6F206D616E79206172674C
:1039D400732021205765206F6E6C79205573653AEA
:1039E4000A0000002573200052542D54687265614A
:1039F40064207368656C6C20636F6D6D616E6473B5
:103A04003A0A00005F5F636D645F000025733A202B
:103A1400636F6D6D616E64206E6F7420666F756E7A
:103A2400642E0A005F5F636D645F66726565000003
:103A34005F5F636D645F68656C7000005F5F636DFA
:103A4400645F7073000000006D61696E0000000027
:103A54007469646C65000000284E554C4C290000C4
:103A64000A205C207C202F0A000000002D205254E4
:103A7400202D2020202020546872656164204F701E
:103A840065726174696E672053797374656D0A0099
:103A9400202F207C205C202020202025642E2564DB
:103AA4002E2564206275696C642025730A00000069
:103AB4004F637420323620323032300020323030BE
:103AC40036202D203230313920436F707972696786
:103AD40068742062792072742D7468726561642040
:103AE4007465616D0A00000000000100020001001D
:103AF40003000100020001000400010002000100B3
:103B040003000100020001000500010002000100A1
:103B14000300010002000100040001000200010092
:103B24000300010002000100060001000200010080
:103B34000300010002000100040001000200010072
:103B44000300010002000100050001000200010061
:103B54000300010002000100040001000200010052
:103B6400030001000200010007000100020001003F
:103B74000300010002000100040001000200010032
:103B84000300010002000100050001000200010021
:103B94000300010002000100040001000200010012
:103BA4000300010002000100060001000200010000
:103BB40003000100020001000400010002000100F2
:103BC40003000100020001000500010002000100E1
:103BD40003000100020001000400010002000100D2
:103BE400030001000200010030313233343536372E
:103BF40038394142434445460000000030313233F5
:103C04003435363738396162636465660000000014
:103C1400746F74616C206D656D6F72793A202564E0
:103C24000A00000075736564206D656D6F727920FC
:103C34003A2025640A0000006D6178696D756D2075
:103C4400616C6C6F6361746564206D656D6F72790E
:103C54003A2025640A0000006865617000000000D5
:103C64006D656D20696E69742C206572726F7220A7
:103C7400626567696E20616464726573732030786D
:103C840025782C20616E6420656E64206164647202
:103C940065737320307825780A000000746F2066FD
:103CA40072656520612062616420646174612062D0
:103CB4006C6F636B3A0A00006D656D3A20307825AD
:103CC4003038782C207573656420666C61673A20FF
:103CD40025642C206D6167696320636F64653A20F5
:103CE4003078253034780A006C6973745F6D656DC3
:103CF40000000000627573206661756C743A0A00F6
:103D04005343425F434653525F424653523A3078DC
:103D14002530325820000000494255534552522064
:103D240000000000505245434953455252200000C0
:103D3400494D50524543495345525220000000001A
:103D4400554E53544B4552522000000053544B459A
:103D5400525220005343422D3E424641523A2530AE
:103D640038580A006D656D206D616E616765206667
:103D740061756C743A0A00005343425F43465352E0
:103D84005F4D4653523A30782530325820000000B7
:103D94004941434356494F4C2000000044414343AA
:103DA40056494F4C200000004D554E53544B45523C
:103DB400522000004D53544B455252200000000045
:103DC4005343422D3E4D4D41523A253038580A0056
:103DD4007573616765206661756C743A0A0000004A
:103DE4005343425F434653525F554653523A3078E9
:103DF4002530325820000000554E444546494E5364
:103E040054522000494E565354415445200000005A
:103E1400494E5650432000004E4F435020000000AE
:103E2400554E414C49474E454420000044495642B2
:103E3400595A45524F2000006661696C65642076CA
:103E44006563746F722066657463680A000000001D
:103E54006465627567206576656E740A000000000B
:103E64007073723A203078253038780A00000000E8
:103E74007230303A203078253038780A000000005B
:103E84007230313A203078253038780A000000004A
:103E94007230323A203078253038780A0000000039
:103EA4007230333A203078253038780A0000000028
:103EB4007230343A203078253038780A0000000017
:103EC4007230353A203078253038780A0000000006
:103ED4007230363A203078253038780A00000000F5
:103EE4007230373A203078253038780A00000000E4
:103EF4007230383A203078253038780A00000000D3
:103F04007230393A203078253038780A00000000C1
:103F14007231303A203078253038780A00000000B9
:103F24007231313A203078253038780A00000000A8
:103F34007231323A203078253038780A0000000097
:103F4400206C723A203078253038780A000000005E
:103F54002070633A203078253038780A0000000059
:103F640068617264206661756C74206F6E20746879
:103F7400726561643A2025730D0A0D0A0000000081
:103F840068617264206661756C74206F6E2068616C
:0C3F94006E646C65720D0A0D0A000000DE
:043FA000090200080A
:043FA400E50100082B
:103FA80001000000100000000024F40001000000DF
:103FB800100000201000002078000000020000001F
:103FC8002000002020000020200000000A0000003F
:0C3FD80030000020300000202C00000011
:040000050800335567
:00000001FF
